{
  "contractName": "News",
  "abi": [
    {
      "constant": false,
      "inputs": [
        {
          "name": "_title",
          "type": "string"
        },
        {
          "name": "_category",
          "type": "string"
        },
        {
          "name": "_hash",
          "type": "string"
        }
      ],
      "name": "addNews",
      "outputs": [],
      "payable": false,
      "stateMutability": "nonpayable",
      "type": "function"
    },
    {
      "constant": true,
      "inputs": [
        {
          "name": "_category",
          "type": "string"
        },
        {
          "name": "_index",
          "type": "uint256"
        }
      ],
      "name": "getNews",
      "outputs": [
        {
          "name": "title",
          "type": "string"
        },
        {
          "name": "rating",
          "type": "int256"
        },
        {
          "name": "hash",
          "type": "string"
        }
      ],
      "payable": false,
      "stateMutability": "view",
      "type": "function"
    },
    {
      "constant": true,
      "inputs": [
        {
          "name": "_index",
          "type": "uint256"
        }
      ],
      "name": "getCategoryName",
      "outputs": [
        {
          "name": "title",
          "type": "string"
        }
      ],
      "payable": false,
      "stateMutability": "view",
      "type": "function"
    },
    {
      "constant": true,
      "inputs": [],
      "name": "getNumberOfCategories",
      "outputs": [
        {
          "name": "count",
          "type": "uint256"
        }
      ],
      "payable": false,
      "stateMutability": "view",
      "type": "function"
    },
    {
      "constant": true,
      "inputs": [
        {
          "name": "_category",
          "type": "string"
        }
      ],
      "name": "getNumberOfNewsInType",
      "outputs": [
        {
          "name": "count",
          "type": "uint256"
        }
      ],
      "payable": false,
      "stateMutability": "view",
      "type": "function"
    }
  ],
  "bytecode": "0x608060405234801561001057600080fd5b50610c2c806100206000396000f30060806040526004361061006d576000357c0100000000000000000000000000000000000000000000000000000000900463ffffffff16806305f4e7ed1461007257806329aad437146101d15780635d7ab0e11461024e578063d1656c1714610343578063d26137c8146103e9575b600080fd5b34801561007e57600080fd5b506100e3600480360381019080803590602001908201803590602001908080601f016020809104026020016040519081016040528093929190818152602001838380828437820191505050505050919291929080359060200190929190505050610414565b604051808060200184815260200180602001838103835286818151815260200191508051906020019080838360005b8381101561012d578082015181840152602081019050610112565b50505050905090810190601f16801561015a5780820380516001836020036101000a031916815260200191505b50838103825284818151815260200191508051906020019080838360005b83811015610193578082015181840152602081019050610178565b50505050905090810190601f1680156101c05780820380516001836020036101000a031916815260200191505b509550505050505060405180910390f35b3480156101dd57600080fd5b50610238600480360381019080803590602001908201803590602001908080601f016020809104026020016040519081016040528093929190818152602001838380828437820191505050505050919291929050505061077b565b6040518082815260200191505060405180910390f35b34801561025a57600080fd5b50610341600480360381019080803590602001908201803590602001908080601f0160208091040260200160405190810160405280939291908181526020018383808284378201915050505050509192919290803590602001908201803590602001908080601f0160208091040260200160405190810160405280939291908181526020018383808284378201915050505050509192919290803590602001908201803590602001908080601f01602080910402602001604051908101604052809392919081815260200183838082843782019150505050505091929192905050506107f2565b005b34801561034f57600080fd5b5061036e600480360381019080803590602001909291905050506109d7565b6040518080602001828103825283818151815260200191508051906020019080838360005b838110156103ae578082015181840152602081019050610393565b50505050905090810190601f1680156103db5780820380516001836020036101000a031916815260200191505b509250505060405180910390f35b3480156103f557600080fd5b506103fe610aa5565b6040518082815260200191505060405180910390f35b6060600060608484600080836040518082805190602001908083835b6020831015156104555780518252602082019150602081019050602083039250610430565b6001836020036101000a03801982511681845116808217855250505050505090500191505090815260200160405180910390208054905011151561049857600080fd5b6000876040518082805190602001908083835b6020831015156104d057805182526020820191506020810190506020830392506104ab565b6001836020036101000a03801982511681845116808217855250505050505090500191505090815260200160405180910390208681548110151561051057fe5b90600052602060002090600402016000016000886040518082805190602001908083835b6020831015156105595780518252602082019150602081019050602083039250610534565b6001836020036101000a03801982511681845116808217855250505050505090500191505090815260200160405180910390208781548110151561059957fe5b9060005260206000209060040201600201546000896040518082805190602001908083835b6020831015156105e357805182526020820191506020810190506020830392506105be565b6001836020036101000a03801982511681845116808217855250505050505090500191505090815260200160405180910390208881548110151561062357fe5b9060005260206000209060040201600301828054600181600116156101000203166002900480601f0160208091040260200160405190810160405280929190818152602001828054600181600116156101000203166002900480156106c95780601f1061069e576101008083540402835291602001916106c9565b820191906000526020600020905b8154815290600101906020018083116106ac57829003601f168201915b50505050509250808054600181600116156101000203166002900480601f0160208091040260200160405190810160405280929190818152602001828054600181600116156101000203166002900480156107655780601f1061073a57610100808354040283529160200191610765565b820191906000526020600020905b81548152906001019060200180831161074857829003601f168201915b5050505050905094509450945050509250925092565b600080826040518082805190602001908083835b6020831015156107b4578051825260208201915060208101905060208303925061078f565b6001836020036101000a0380198251168184511680821785525050505050509050019150509081526020016040518091039020805490509050919050565b6107fa610ab2565b8381600001819052508281602001819052506000816040018181525050818160600181905250600080846040518082805190602001908083835b6020831015156108595780518252602082019150602081019050602083039250610834565b6001836020036101000a03801982511681845116808217855250505050505090500191505090815260200160405180910390208054905014156108d65760018390806001815401808255809150509060018203906000526020600020016000909192909190915090805190602001906108d3929190610adb565b50505b6000836040518082805190602001908083835b60208310151561090e57805182526020820191506020810190506020830392506108e9565b6001836020036101000a038019825116818451168082178552505050505050905001915050908152602001604051809103902081908060018154018082558091505090600182039060005260206000209060040201600090919290919091506000820151816000019080519060200190610989929190610b5b565b5060208201518160010190805190602001906109a6929190610b5b565b506040820151816002015560608201518160030190805190602001906109cd929190610b5b565b5050505050505050565b6060600180549050821015156109ec57600080fd5b6001828154811015156109fb57fe5b906000526020600020018054600181600116156101000203166002900480601f016020809104026020016040519081016040528092919081815260200182805460018160011615610100020316600290048015610a995780601f10610a6e57610100808354040283529160200191610a99565b820191906000526020600020905b815481529060010190602001808311610a7c57829003601f168201915b50505050509050919050565b6000600180549050905090565b608060405190810160405280606081526020016060815260200160008152602001606081525090565b828054600181600116156101000203166002900490600052602060002090601f016020900481019282601f10610b1c57805160ff1916838001178555610b4a565b82800160010185558215610b4a579182015b82811115610b49578251825591602001919060010190610b2e565b5b509050610b579190610bdb565b5090565b828054600181600116156101000203166002900490600052602060002090601f016020900481019282601f10610b9c57805160ff1916838001178555610bca565b82800160010185558215610bca579182015b82811115610bc9578251825591602001919060010190610bae565b5b509050610bd79190610bdb565b5090565b610bfd91905b80821115610bf9576000816000905550600101610be1565b5090565b905600a165627a7a72305820b46ff6d9568147c59ac9d181014b9fda63f77b3bd91920f2b9f28771bb9623810029",
  "source": "pragma solidity ^0.4.23;\r\n\r\ncontract News {\r\n    \r\n    struct news{\r\n        string title;\r\n        string category;\r\n        int rating;\r\n        string hash;\r\n    }\r\n    \r\n    mapping (string => news[]) newsAll;\r\n    \r\n    string[] private categories;\r\n    \r\n    modifier newsExists(string _category, uint _index) {\r\n        require(newsAll[_category].length > 0);\r\n        _;\r\n    }\r\n\r\n    function addNews(string _title, string _category, string _hash) public {\r\n        news memory currentNews;\r\n        currentNews.title = _title;\r\n        currentNews.category = _category;\r\n        currentNews.rating = 0;\r\n        currentNews.hash = _hash;\r\n\r\n        if(newsAll[_category].length == 0) {\r\n            categories.push(_category);\r\n        }\r\n\r\n        newsAll[_category].push(currentNews);\r\n    }\r\n    \r\n    function getNews(string _category, uint _index) view public newsExists(_category, _index) returns (string title, int rating, string hash) {\r\n        return(\r\n        newsAll[_category][_index].title,\r\n        newsAll[_category][_index].rating,\r\n        newsAll[_category][_index].hash\r\n        );\r\n    }\r\n    \r\n    function getCategoryName(uint _index) view public returns (string title) {\r\n        require(_index < categories.length);\r\n        return categories[_index];\r\n    }\r\n    \r\n    function getNumberOfCategories() public view returns (uint count) {\r\n        return categories.length;\r\n    }\r\n    \r\n    function getNumberOfNewsInType(string _category) view public returns (uint count) {\r\n        return newsAll[_category].length;\r\n    }\r\n}",
  "sourcePath": "C:\\Users\\Георги Караманев\\Documents\\_programirane\\06_JS web\\_____project_Angular\\daDapp\\truffle\\contracts\\News.sol",
  "compiler": {
    "name": "solc",
    "version": "0.4.24+commit.e67f0147.Emscripten.clang"
  },
  "schemaVersion": "2.0.1",
  "updatedAt": "2018-08-14T12:31:36.980Z"
}